:060000000A128A1100291A
:10000800F000030EF100031383120B181D200B19C7
:100018001220710E8300F00E700E09000313831274
:10002800D83081000B11A00A0A3027020319A70152
:10003800080003138312061C850A051A8501861F0A
:0600480085030B10080007
:10020000292141212021502148210D21880103135A
:1002100083120D211A211521092964302002031DA2
:100220000800A70AA30AA001080006300802031D5F
:10023000080088010A302302031D0800880AA30170
:1002400003138316161496170313831206080B1054
:10025000080083160317880189018316031385019B
:10026000061486178113151495178312031385013D
:1002700087010313831687018801031383168801FE
:100280000800031383160F178F160F120F140800A0
:10029000031383128B178B150B108B160B11080091
:1002A00003138316811281110115811401140313A4
:1002B0008312D83081000B11080027080022A50006
:0A02C0008701622925088700080065
:100400008A010A140F3982073F3406345B344F34B3
:1004100066346D347D3407347F346F3477347C3404
:0804200039345E347934713483
:04400E00C430FF3F7C
:00000001FF
