:060000000A128A1100291A
:10000800F000030EF100031383120B1819200B19CB
:100018001220710E8300F00E700E09000313831274
:10002800D83081000B11A00A080003138312061CA4
:0E003800850A051A8501861F85030B10080036
:100200001A212E2111213D2135210A2103138312A8
:100210000A21082964302002031D0800870AA00172
:100220000800031383161614961703138312060887
:100230000B10080083160317880189018316031326
:10024000850106148617811315149517831203135D
:1002500085018701031383168701080003138316A2
:100260000F178F160F120F140800031383128B172A
:100270008B150B108B160B110800031383168112BC
:10028000811101158114011403138312D8308100E8
:040290000B11080046
:04400E00C430FF3F7C
:00000001FF
