:060000000A128A1100291A
:10000800F000030EF100031383120B181D200B19C7
:100018001220710E8300F00E700E09000313831274
:10002800D83081000B11A00A0A3023020319A3015A
:10003800080003138312061C850A051A8501861F0A
:0600480085030B10080007
:1002000035214D212C215C2154210D21880103131E
:1002100083120D211D211621092964302002031D9E
:100220000800A30A2421A20AA00108002821063000
:100230002402031D0800A40108000A302202031D45
:100240000800A40AA2010800230800228700080071
:10025000240800228800080003138316161496173A
:100260000313831206080B10080083160317880176
:10027000890183160313850106148617811315144B
:1002800095178312031385018701031383168701D2
:1002900088010313831688010800031383160F17C0
:1002A0008F160F120F140800031383128B178B1570
:1002B0000B108B160B11080003138316811281118A
:1002C00001158114011403138312D83081000B111E
:0202D000080024
:100400008A010A140F3982073F3406345B344F34B3
:1004100066346D347D3407347F346F3477347C3404
:0804200039345E347934713483
:04400E00C430FF3F7C
:00000001FF
